:020000040800F2
:1000000000000220991100080111000809110008E0
:10001000111100081911000821110008000000004A
:10002000000000000000000000000000291100088E
:1000300037110008000000004511000853110008A6
:10004000E9110008E9110008E9110008E9110008A8
:10005000E9110008E9110008E9110008E911000898
:10006000E9110008E9110008E9110008E911000888
:10007000E9110008E9110008E9110008E911000878
:1000800061110008E9110008E9110008E9110008F0
:10009000E9110008E9110008E9110008E911000858
:1000A000E9110008E9110008E9110008E911000848
:1000B000E9110008E9110008E9110008E911000838
:1000C000E9110008E9110008E9110008E911000828
:1000D000E9110008E9110008E9110008E911000818
:1000E000E9110008E9110008E9110008E911000808
:1000F000E9110008E9110008E9110008E9110008F8
:10010000E9110008E9110008E9110008E9110008E7
:10011000E9110008E9110008E9110008E9110008D7
:10012000E9110008E9110008E9110008E9110008C7
:10013000E9110008E9110008E9110008E9110008B7
:10014000E9110008E9110008E9110008E9110008A7
:10015000E9110008E9110008E9110008E911000897
:10016000E9110008E9110008E9110008E911000887
:10017000E9110008E9110008E91100080000000079
:08018000E9110008E911000873
:1001880010B5054C237833B9044B13B10448AFF3C9
:1001980000800123237010BD0C0000200000000027
:1001A8000841000808B5034B1BB103490348AFF3E6
:1001B800008008BD00000000100000200841000871
:1001C80081F0004102E000BF83F0004330B54FEA00
:1001D80041044FEA430594EA050F08BF90EA020F6D
:1001E8001FBF54EA000C55EA020C7FEA645C7FEA00
:1001F800655C00F0E2804FEA5454D4EB5555B8BF23
:100208006D420CDD2C4480EA020281EA030382EA93
:10021800000083EA010180EA020281EA0303362D25
:1002280088BF30BD11F0004F4FEA01314FF4801CF8
:100238004CEA113102D0404261EB410113F0004F0A
:100248004FEA03334CEA133302D0524263EB4303C1
:1002580094EA050F00F0A780A4F10104D5F1200E5F
:100268000DDB02FA0EFC22FA05F2801841F10001BA
:1002780003FA0EF2801843FA05F359410EE0A5F18E
:1002880020050EF1200E012A03FA0EFC28BF4CF0BF
:10029800020C43FA05F3C01851EBE37101F0004575
:1002A80007D54FF0000EDCF1000C7EEB00006EEB82
:1002B8000101B1F5801F1BD3B1F5001F0CD349080C
:1002C8005FEA30004FEA3C0C04F101044FEA445263
:1002D80012F5800F80F09A80BCF1004F08BF5FEAEA
:1002E800500C50F1000041EB045141EA050130BDCA
:1002F8005FEA4C0C404141EB0101013C28BFB1F5DC
:10030800801FE9D291F0000F04BF01460020B1FA26
:1003180081F308BF2033A3F10B03B3F120020CDAF9
:100328000C3208DD02F1140CC2F10C0201FA0CF0D7
:1003380021FA02F10CE002F11402D8BFC2F1200C3C
:1003480001FA02F120FA0CFCDCBF41EA0C019040F2
:10035800E41AA2BF01EB0451294330BD6FEA04043B
:100368001F3C1CDA0C340EDC04F11404C4F1200226
:1003780020FA04F001FA02F340EA030021FA04F338
:1003880045EA030130BDC4F10C04C4F1200220FA8F
:1003980002F001FA04F340EA0300294630BD21FACD
:1003A80004F0294630BD94F0000F83F4801306BF93
:1003B80081F480110134013D4EE77FEA645C18BF87
:1003C8007FEA655C29D094EA050F08BF90EA020F1E
:1003D80005D054EA000C04BF1946104630BD91EA16
:1003E800030F1EBF0021002030BD5FEA545C05D119
:1003F8004000494128BF41F0004130BD14F5800458
:100408003CBF01F5801130BD01F0004545F0FE41CB
:1004180041F470014FF0000030BD7FEA645C1ABF00
:10042800194610467FEA655C1CBF0B46024650EA37
:10043800013406BF52EA033591EA030F41F4002163
:1004480030BD00BF90F0000F04BF0021704730B5E9
:100458004FF4806404F132044FF000054FF00001BE
:1004680050E700BF90F0000F04BF0021704730B57F
:100478004FF4806404F1320410F0004548BF404254
:100488004FF000013EE700BF42004FEAE2014FEAA9
:1004980031014FEA02701FBF12F07F4393F07F4F84
:1004A80081F06051704732F07F4208BF704793F087
:1004B8007F4F04BF41F40021704730B54FF460749A
:1004C80001F0004521F000411CE700BF50EA01029D
:1004D80008BF704730B54FF000050AE050EA010246
:1004E80008BF704730B511F0004502D5404261EBB6
:1004F80041014FF4806404F132045FEA915C3FF4F7
:10050800D8AE4FF003025FEADC0C18BF03325FEA93
:10051800DC0C18BF033202EBDC02C2F1200300FA44
:1005280003FC20FA02F001FA03FE40EA0E0021FA69
:1005380002F11444BDE600BF4FF0FF3C06E000BFE7
:100548004FF0010C02E000BF4FF0010C4DF804CD54
:100558004FEA410C7FEA6C5C4FEA430C18BF7FEA14
:100568006C5C1BD001B050EA410C0CBF52EA430C42
:1005780091EA030F02BF90EA020F0020704710F1C2
:10058800000F91EA030F58BF994208BF90422CBF51
:10059800D8176FEAE37040F0010070474FEA410C4A
:1005A8007FEA6C5C02D150EA013C07D14FEA430C68
:1005B8007FEA6C5CD6D152EA033CD3D05DF8040BD9
:1005C800704700BF8446104662468C46194663460B
:1005D80000E000BF01B5FFF7B7FF002848BF10F1E2
:1005E800000F01BD4DF808EDFFF7F4FF0CBF012027
:1005F80000205DF808FB00BF4DF808EDFFF7EAFFA3
:1006080034BF012000205DF808FB00BF4DF808ED5D
:10061800FFF7E0FF94BF012000205DF808FB00BF52
:100628004DF808EDFFF7CEFF94BF012000205DF8DC
:1006380008FB00BF4DF808EDFFF7C4FF34BF0120E9
:1006480000205DF808FB00BF53B94AB9002908BF6C
:1006580000281CBF4FF0FF314FF0FF3000F088B981
:10066800ADF1080C6DE904CE00F006F8DDF804E001
:10067800DDE9022304B070472DE9F047089D8E4656
:1006880004468846002B4AD18A42174662D9B2FAF4
:1006980082F64EB1C6F1200301FA06F820FA03F3F8
:1006A800B74043EA0808B4404FEA174E1FFA87FCE0
:1006B800B8FBFEF1230C0EFB118843EA084301FB4B
:1006C8000CF29A4209D9FB1801F1FF3080F0EA8058
:1006D8009A4240F2E78002393B449A1AA3B2B2FB2D
:1006E800FEF00EFB102243EA024300FB0CFC9C4583
:1006F80009D9FB1800F1FF3280F0D6809C4540F202
:10070800D3803B44023840EA0140A3EB0C030021AC
:100718001DB1F3400022C5E90032BDE8F0878B42E5
:1007280005D90DB1C5E9000100210846F5E7B3FA7E
:1007380083F1002946D1734502D3824200F2058134
:10074800841A6EEB030201209046002DE5D0C5E91E
:100758000048E2E7002A00F09080B2FA82F6002E04
:1007680040F0A4808A1A030C4FEA174E80B2BCB23C
:100778000121B2FBFEFC0EFB1C2243EA024304FBF0
:100788000CF29A4207D9FB180CF1FF3802D29A42B0
:1007980000F2E080C4469B1AB3FBFEF20EFB123354
:1007A80040EA034302FB04F49C4207D9FB1802F118
:1007B800FF3002D29C4200F2CA8002461B1B42EA6A
:1007C8000C40A5E7C1F120068B4022FA06F71F432B
:1007D8000EFA01F420FA06F32EFA06FE4FEA17493C
:1007E800234300FA01F81FFA87FCBEFBF9F01C0C42
:1007F80009FB10EE44EA0E4400FB0CFEA64502FA83
:1008080001F209D93C1900F1FF3A80F09C80A64515
:1008180040F2998002383C44A4EB0E041FFA83FE90
:10082800B4FBF9F309FB13444EEA044403FB0CFC44
:10083800A44508D93C1903F1FF3E80F08280A44505
:100848007FD9023B3C4443EA0040A4EB0C04A0FBE4
:1008580002EC64457346E14662D35FD05DB1B8EB04
:10086800030264EB090404FA06F622FA01F31E43B4
:10087800CC40C5E9006400214FE7B1FBF2FC010C54
:1008880041EA0E4180B240EA01423B4638463C46C6
:10089800B846BE462026B1FBF7F1A2EB080241EAB2
:1008A8000C4166E7014618E710462CE7C6F120021E
:1008B8002EFA02F3B740B14020FA02F24FEA174E7F
:1008C8000A43B3FBFEF8BCB20EFB1833110C41EA25
:1008D800034108FB04F9B04089454FEA104380B250
:1008E8003ED9791808F1FF3C01D289451FD8A1EB00
:1008F8000901B1FBFEF909FB04F80EFB191192B2CC
:1009080042EA0142424529D2BA1809F1FF31C4D25C
:100918004245C2D2A9F102013A44BEE7F0459DD250
:10092800BEEB02036CEB070C0138E14696E7A7EB38
:1009380009094944A8F1020CB1FBFEF909FB04F8C6
:10094800DBE773467FE7504666E70846FDE63B442B
:10095800023A33E7ACF1020C3B441CE749469CE7FA
:10096800A1EB0901C446B1FBFEF909FB04F8C4E791
:10097800704700BF80B586B000AF0346FB710B46D9
:10098800BB7113467B71BB791A04FB791B021A43AE
:100998007B791343BB6000237B6117233B6119E01C
:1009A80001223B6902FA03F31A46BB681340002B85
:1009B80005D0174A7B690D2142F8231004E0144A38
:1009C8007B69062142F823107B6901337B613B690F
:1009D800013B3B613B69002BE2DA0023FB600AE044
:1009E8000B4A7B69002142F823107B6901337B6144
:1009F800FB680133FB60FB68312BF1DD4A23044AB5
:100A08000421044802F07EFB00BF1837BD4680BDB4
:100A1800180100207000002080B500AF00F048FCED
:100A28000246354B1B68D31AB3F57A7F5DD300F0C5
:100A38003FFC0346304A1360304800F089FC0A2125
:100A48002E4800F08AFD0346002B4BD12B4800F0BE
:100A58000FFE07EE900AF8EE677A9FED297A67EEA7
:100A6800877A284BC3ED007A264BD3ED007AB0EE97
:100A7800087AF4EEC77AF1EE10FA15DD214B1B68FF
:100A88001846FFF701FD1AA3D3E90023FFF7B4FDC9
:100A98000346002B08D000220021FF20FFF76AFF41
:100AA800194B01221A701DE0164B1B681846FFF7F8
:100AB800EBFC0FA3D3E90023FFF7B2FD0346002B9D
:100AC80008D00022FF210020FFF754FF0E4B002220
:100AD8001A7007E0FF2200210020FFF74BFF0A4BA6
:100AE80000221A70054800F005FD00BF80BD00BF58
:100AF8006666666666661A4048020020280000207E
:100B0800503A113C400200204402002080B582B0D7
:100B180000AF204B1B78012B2FD100F0C9FB0246F8
:100B28001D4B1B68D31AC72B0ED900F0C1FB034617
:100B3800194A1360194B1B78002B0CBF01230023A3
:100B4800DBB21A46154B1A70144B1B78012B0ED1C9
:100B58004021134801F0EFFD00237B6002E07B6831
:100B680001337B607B68B3F5FA6FF8DB0DE0002298
:100B780040210B4801F0C6FD07E0084B00221A701F
:100B880000224021064801F0BDFD00BF0837BD46E0
:100B980080BD00BF440200204C020020500200200B
:100BA8000000024080B500AF00F01CFB00F00EF81A
:100BB80000F052F900F030F900F066F800F0B6F8ED
:100BC800FFF72AFFFFF7A2FF00BFF9E780B594B04F
:100BD80000AF07F1200330220021184603F064FA21
:100BE80007F10C0300221A605A609A60DA601A61F1
:100BF8000023BB60224B1B6C214A43F080531364D3
:100C08001F4B1B6C03F08053BB60BB6800237B60E9
:100C18001C4B1B681B4A43F480431360194B1B6829
:100C280003F480437B607B6802233B620123FB6201
:100C380010233B630023BB6307F12003184601F030
:100C480095FD0346002B01D000F056F90F23FB60F9
:100C580000233B6100237B610023BB610023FB6110
:100C680007F10C030021184601F0F8FF0346002B9A
:100C780001D000F041F900BF5037BD4680BD00BF2C
:100C8800003802400070004080B584B000AF3B4699
:100C980000221A605A609A60DA60214B214A1A6071
:100CA8001F4B00225A601E4B00229A601C4B0022E8
:100CB8001A611B4B00221A76194B002283F8202058
:100CC800174B0022DA62164B174A9A62144B00221D
:100CD800DA60134B0122DA61114B002283F83020CD
:100CE8000F4B01225A610E4800F0EEFA0346002B22
:100CF80001D000F001F908233B6001237B60002349
:100D0800BB603B461946064800F0C0FC0346002B72
:100D180001D000F0F1F800BF1037BD4680BD00BF1C
:100D280028000020002001400100000F80B58EB08F
:100D380000AF07F1280300221A605A609A60DA604F
:100D480007F1200300221A605A603B1D00221A6036
:100D58005A609A60DA601A615A619A612C4B2D4A7E
:100D68001A602B4B00225A60294B00229A60284BAC
:100D78001322DA60264B00221A61254B00229A6161
:100D8800234802F017F90346002B01D000F0B4F80D
:100D98004FF48053BB6207F1280319461C4802F040
:100DA8003BFC0346002B01D000F0A6F8184802F0DF
:100DB80050F90346002B01D000F09EF800233B6257
:100DC80000237B6207F120031946114803F0F0F86D
:100DD8000346002B01D000F08FF860237B600023CE
:100DE800BB600023FB6000237B613B1D0422194686
:100DF800074802F04FFB0346002B01D000F07CF8B7
:100E0800034800F03FF900BF3837BD4680BD00BF3A
:100E1800700000200004004080B582B000AF0023BD
:100E28007B600C4B1B6B0B4A43F400131363094B99
:100E38001B6B03F400137B607B68002200211020E9
:100E480000F01DFF102000F036FF00BF0837BD4638
:100E580080BD00BF0038024080B588B000AF07F100
:100E68000C0300221A605A609A60DA601A61002343
:100E7800BB601F4B1B6B1E4A43F0800313631C4B64
:100E88001B6B03F08003BB60BB6800237B60184BBF
:100E98001B6B174A43F001031363154B1B6B03F0DD
:100EA80001037B607B6800233B60114B1B6B104A7E
:100EB80043F0020313630E4B1B6B03F002033B600A
:100EC8003B68002240210B4801F01CFC4023FB60DA
:100ED80001233B6100237B610023BB6107F10C0305
:100EE8001946044801F072FA00BF2037BD4680BD9C
:100EF800003802400000024080B400AF72B600BF64
:100F080000BFFDE780B483B000AF00237B60104BC7
:100F18005B6C0F4A43F4804353640D4B5B6C03F4E2
:100F280080437B607B6800233B60094B1B6C084A4D
:100F380043F080531364064B1B6C03F080533B60F3
:100F48003B6800BF0C37BD465DF8047B704700BFA7
:100F58000038024080B58AB000AF786007F114030A
:100F680000221A605A609A60DA601A617B681B680E
:100F7800174A934227D100233B61164B5B6C154AF5
:100F880043F480735364134B5B6C03F480733B61CD
:100F98003B690023FB600F4B1B6B0E4A43F00203B7
:100FA80013630C4B1B6B03F00203FB60FB6801230C
:100FB8007B610323BB610023FB6107F1140319461E
:100FC800054801F003FA00BF2837BD4680BD00BFC1
:100FD80000200140003802400004024080B584B07F
:100FE80000AF78607B681B68224A93423ED1002399
:100FF800FB60214B1B6C204A43F0020313641E4B19
:101008001B6C03F00203FB60FB681C4B1C4A1A6054
:101018001A4B4FF020625A60184B40229A60174BC7
:101028000022DA60154B4FF480621A61134B4FF4BB
:1010380080525A61114B4FF480429A610F4B002243
:10104800DA610E4B4FF400321A620C4B00225A62DE
:101058000A4800F04BFE0346002B01D0FFF74CFF77
:101068007B68064A9A62054A7B68936300BF10371B
:10107800BD4680BD0004004000380240B800002092
:101088008860024080B588B000AF786007F10C0333
:1010980000221A605A609A60DA601A617B681B68DD
:1010A800124A93421DD10023BB60114B1B6B104A9F
:1010B80043F0010313630E4B1B6B03F00103BB608A
:1010C800BB688023FB6002233B6100237B61002314
:1010D800BB610223FB6107F10C031946054801F0C7
:1010E80075F900BF2037BD4680BD00BF0004004031
:1010F800003802400000024080B400AF00BFFDE7A6
:1011080080B400AF00BFFDE780B400AF00BFFDE7CB
:1011180080B400AF00BFFDE780B400AF00BFFDE7BB
:1011280080B400AF00BFBD465DF8047B704780B453
:1011380000AF00BFBD465DF8047B704780B400AFC8
:1011480000BFBD465DF8047B704780B500AF00F076
:101158009BF800BF80BD000080B500AF024800F0DA
:10116800CBFE00BF80BD00BFB800002080B400AF38
:10117800064BD3F88830054A43F47003C2F8883028
:1011880000BFBD465DF8047B704700BF00ED00E07E
:10119800DFF834D0FFF7EAFF0C480D490D4A002369
:1011A80002E0D458C4500433C4188C42F9D30A4A14
:1011B8000A4C002301E013600432A242FBD302F080
:1011C8007BFFFFF7EFFC70470000022000000020C3
:1011D8000C000020484100080C00002058020020A4
:1011E800FEE7000080B500AF0E4B1B680D4A43F4C4
:1011F800007313600B4B1B680A4A43F48063136047
:10120800084B1B68074A43F480731360032000F0FF
:101218002BFD0F2000F008F8FFF774FE0023184696
:1012280080BD00BF003C024080B582B000AF78604E
:10123800124B1A68124B1B7819464FF47A73B3FB9A
:10124800F1F3B2FBF3F3184600F043FD0346002B1D
:1012580001D001230EE07B680F2B0AD800227968A1
:101268004FF0FF3000F00BFD064A7B681360002347
:1012780000E0012318460837BD4680BD0000002065
:10128800080000200400002080B400AF064B1B7843
:101298001A46064B1B681344044A136000BFBD4638
:1012A8005DF8047B704700BF08000020540200204E
:1012B80080B400AF034B1B681846BD465DF8047B3D
:1012C800704700BF5402002080B584B000AF78603A
:1012D8000023FB737B68002B01D1012333E07B687B
:1012E8001B6C002B09D17868FFF734FE7B6800225D
:1012F8005A647B68002283F83C207B681B6C03F0EF
:101308001003002B18D17B681B6C23F4885323F03F
:10131800020343F002027B681A64786800F0D8FA86
:101328007B6800225A647B681B6C23F0030343F03C
:1013380001027B681A6401E00123FB737B680022C9
:1013480083F83C20FB7B18461037BD4680BD000063
:1013580080B485B000AF78600023BB607B6893F8E9
:101368003C30012B01D10223B2E07B68012283F8D3
:101378003C207B681B689B6803F00103012B18D095
:101388007B681B689A687B681B6842F001029A6058
:10139800524B1B68524AA2FB03239A0C13465B006C
:1013A8001344BB6002E0BB68013BBB60BB68002B19
:1013B800F9D17B681B689B6803F00103012B7AD184
:1013C8007B681B6C23F4E06323F0010343F4807211
:1013D8007B681A647B681B685B6803F48063002B76
:1013E80007D07B681B6C23F4405343F480527B681E
:1013F8001A647B681B6C03F48053B3F5805F06D1D5
:101408007B685B6C23F006027B685A6402E07B68A9
:1014180000225A647B68002283F83C20314BFB6031
:101428007B681B686FF022021A60FB685B6803F038
:101438001F03002B2AD17B681B682B4A934215D0C7
:101448007B681B68294A934205D1264B5B6803F0E9
:101458001F03002B0AD07B681B68254A934236D1AC
:10146800204B5B6803F01003002B30D17B681B68AE
:101478009B6803F04053002B29D17B681B689A684E
:101488007B681B6842F080429A6020E07B681B689A
:10149800154A93421BD17B681B689B6803F0405335
:1014A800002B14D17B681B689A687B681B6842F024
:1014B80080429A600BE07B681B6C43F010027B68EB
:1014C8001A647B685B6C43F001027B685A640023F2
:1014D80018461437BD465DF8047B704700000020AD
:1014E80083DE1B430023014000200140002101400E
:1014F8000022014080B483B000AF78607B6893F825
:101508003C30012B01D1022321E07B68012283F8C2
:101518003C207B681B689A687B681B6822F0010284
:101528009A607B681B689B6803F00103002B09D154
:101538007B681B6C23F4885323F0010343F00102FA
:101548007B681A647B68002283F83C2000231846D5
:101558000C37BD465DF8047B704780B584B000AF9A
:10156800786039600023FB607B681B689B6803F424
:101578008063B3F5806F13D17B681B689B6803F4A5
:101588008073B3F5807F0BD17B681B6C43F020021E
:101598007B681A647B68002283F83C20012363E09F
:1015A800FFF786FEF86021E03B68B3F1FF3F1DD0EE
:1015B8003B68002B07D0FFF77BFE0246FB68D31A77
:1015C8003A689A4212D27B681B681B6803F00203D0
:1015D800022B0BD07B681B6C43F004027B681A64F7
:1015E8007B68002283F83C2003233DE07B681B686E
:1015F8001B6803F00203022BD6D17B681B686FF0CF
:1016080012021A607B681B6C43F400727B681A64D0
:101618007B681B689B6803F04053002B23D17B68D1
:101628001B7E002B1FD17B681B68DB6A03F47003E9
:10163800002B06D07B681B689B6803F48063002B33
:1016480011D17B681B6C23F480727B681A647B68F9
:101658001B6C03F48053002B05D17B681B6C43F093
:1016680001027B681A64002318461037BD4680BD06
:1016780080B483B000AF78607B681B68DB6C184669
:101688000C37BD465DF8047B7047000080B485B018
:1016980000AF786039600023BB607B6893F83C300A
:1016A800012B01D1022305E17B68012283F83C204C
:1016B8003B681B68092B25D97B681B68D9683B6880
:1016C8001B689BB21A4613465B0013441E3B072255
:1016D80002FA03F3DA437B681B680A40DA607B6826
:1016E8001B68D9683B689A683B681B689BB21846B8
:1016F80003465B0003441E3B9A407B681B680A4311
:10170800DA6022E07B681B6819693B681B689BB23A
:101718001A4613465B001344072202FA03F3DA431E
:101728007B681B680A401A617B681B6819693B68FB
:101738009A683B681B689BB2184603465B000344E3
:101748009A407B681B680A431A613B685B68062BF2
:1017580024D87B681B68596B3B685A6813469B0002
:101768001344053B1F2202FA03F3DA437B681B6824
:101778000A405A637B681B68596B3B681B689BB2BD
:1017880018463B685A6813469B001344053B00FA09
:1017980003F27B681B680A435A634CE03B685B684A
:1017A8000C2B24D87B681B68196B3B685A68134656
:1017B8009B001344233B1F2202FA03F3DA437B689E
:1017C8001B680A401A637B681B68196B3B681B68B7
:1017D8009BB218463B685A6813469B001344233B48
:1017E80000FA03F27B681B680A431A6323E07B68EC
:1017F8001B68D96A3B685A6813469B001344413BEF
:101808001F2202FA03F3DA437B681B680A40DA6294
:101818007B681B68D96A3B681B689BB218463B68A3
:101828005A6813469B001344413B00FA03F27B6855
:101838001B680A43DA62224BFB607B681B68214AFB
:10184800934209D13B681B68122B05D1FB685B6882
:1018580043F48002FB685A607B681B68194A93420C
:1018680023D13B681B68102B03D03B681B68112BE6
:101878001BD1FB685B6843F40002FB685A603B6855
:101888001B68102B11D1104B1B68104AA2FB0323B5
:101898009A0C13469B0013445B00BB6002E0BB68D4
:1018A800013BBB60BB68002BF9D17B68002283F841
:1018B8003C20002318461437BD465DF8047B70476A
:1018C80000230140002001400000002083DE1B436C
:1018D80080B485B000AF7860794BFB60FB685B68CB
:1018E80023F44032FB685A60FB685A687B685B687F
:1018F8001A43FB685A607B681B685A687B681B68D8
:1019080022F480725A607B681B6859687B681B697F
:101918001A027B681B680A435A607B681B685A680E
:101928007B681B6822F040725A607B681B685968A4
:101938007B689A687B681B680A435A607B681B68E7
:101948009A687B681B6822F400629A607B681B684F
:1019580099687B68DA687B681B680A439A607B68C9
:101968009B6A584A934222D07B681B689A687B68B6
:101978001B6822F070629A607B681B6899687B68B4
:101988009A6A7B681B680A439A607B681B689A6836
:101998007B681B6822F040529A607B681B689968D4
:1019A8007B68DA6A7B681B680A439A600FE07B6889
:1019B8001B689A687B681B6822F070629A607B6873
:1019C8001B689A687B681B6822F040529A607B68A3
:1019D8001B689A687B681B6822F002029A607B6821
:1019E8001B6899687B681B7E5A007B681B680A43E2
:1019F8009A607B6893F82030002B1BD07B681B68AB
:101A08005A687B681B6842F400625A607B681B68EE
:101A18005A687B681B6822F460425A607B681B68BE
:101A280059687B685B6A013B5A037B681B680A43F9
:101A38005A6007E07B681B685A687B681B6822F459
:101A480000625A607B681B68DA6A7B681B6822F44C
:101A58007002DA627B681B68D96A7B68DB69013BC4
:101A68001A057B681B680A43DA627B681B689A68F8
:101A78007B681B6822F400729A607B681B6899680F
:101A88007B6893F830305A027B681B680A439A6077
:101A98007B681B689A687B681B6822F480629A607E
:101AA8007B681B6899687B685B699A027B681B681E
:101AB8000A439A6000BF1437BD465DF8047B70473F
:101AC800002301400100000F80B485B000AF7860AA
:101AD8007B6803F00703FB600C4BDB68BB60BA68EC
:101AE8004FF6FF031340BB60FB681A02BB68134341
:101AF80043F0BF6343F40033BB60044ABB68D36060
:101B080000BF1437BD465DF8047B704700ED00E068
:101B180080B400AF044BDB681B0A03F007031846C8
:101B2800BD465DF8047B704700ED00E080B483B0EB
:101B380000AF0346FB7197F90730002B0BDBFB79ED
:101B480003F01F02074997F907305B09012000FAE3
:101B580002F241F8232000BF0C37BD465DF8047B34
:101B6800704700BF00E100E080B483B000AF0346D7
:101B78003960FB7197F90730002B0ADB3B68DAB252
:101B88000C4997F907301201D2B20B4483F80023AD
:101B98000AE03B68DAB20849FB7903F00F03043B1B
:101BA8001201D2B20B441A7600BF0C37BD465DF85D
:101BB800047B704700E100E000ED00E080B489B0EC
:101BC80000AFF860B9607A60FB6803F00703FB6157
:101BD800FB69C3F10703042B28BF0423BB61FB691E
:101BE8000433062B02D9FB69033B00E000237B6129
:101BF8004FF0FF32BB6902FA03F3DA43BB681A40BD
:101C08007B699A404FF0FF317B6901FA03F3D943AE
:101C18007B680B40134318462437BD465DF8047BA8
:101C28007047000080B582B000AF78607B68013BE8
:101C3800B3F1807F01D301230FE00A4A7B68013B9F
:101C480053600F214FF0FF30FFF78EFF054B002246
:101C58009A60044B07221A60002318460837BD46CD
:101C680080BD00BF10E000E080B582B000AF7860B2
:101C78007868FFF729FF00BF0837BD4680BD80B5EB
:101C880086B000AF0346B9607A60FB7300237B61BE
:101C9800FFF73EFF78617A68B9687869FFF78EFFC9
:101CA800024697F90F3011461846FFF75DFF00BF4F
:101CB8001837BD4680BD80B582B000AF0346FB71C2
:101CC80097F907301846FFF731FF00BF0837BD46C0
:101CD80080BD80B582B000AF78607868FFF7A2FF5A
:101CE800034618460837BD4680BD000080B586B05B
:101CF80000AF786000237B61FFF7DAFA38617B6810
:101D0800002B01D1012399E07B68022283F835205A
:101D18007B68002283F834207B681B681A687B681C
:101D28001B6822F001021A600FE0FFF7C1FA0246B1
:101D38003B69D31A052B08D97B6820225A657B6832
:101D4800032283F83520032378E07B681B681B682F
:101D580003F00103002BE8D17B681B681B687B61DB
:101D68007A69384B13407B617B685A687B689B684B
:101D78001A437B68DB681A437B681B691A437B68D4
:101D88005B691A437B689B691A437B68DB691A4362
:101D98007B681B6A13437A6913437B617B685B6AC0
:101DA800042B07D17B68DA6A7B681B6B13437A695B
:101DB80013437B617B681B687A691A607B681B68C0
:101DC8005B697B617B6923F007037B617B685B6AE6
:101DD8007A6913437B617B685B6A042B17D17B6844
:101DE8009B6A7A6913437B617B68DB6A002B0ED0A0
:101DF800786800F06FFA0346002B08D07B68402211
:101E08005A657B68012283F83520012316E07B6838
:101E18001B687A695A61786800F026FA0346FB6005
:101E28007B68DB6D3F229A40FB689A607B680022E2
:101E38005A657B68012283F8352000231846183735
:101E4800BD4680BD3F8010F080B586B000AFF86019
:101E5800B9607A603B600023FB75FB689B6D3B6152
:101E6800FB6893F83430012B01D1022340E0FB6872
:101E7800012283F83420FB6893F83530DBB2012B5C
:101E88002FD1FB68022283F83520FB6800225A65AF
:101E98003B687A68B968F86800F0B8F9FB68DB6DE8
:101EA8003F229A403B699A60FB681B681A68FB6886
:101EB8001B6842F016021A60FB681B6C002B07D0E7
:101EC800FB681B681A68FB681B6842F008021A6006
:101ED800FB681B681A68FB681B6842F001021A60FD
:101EE80005E0FB68002283F834200223FB75FB7DA4
:101EF80018461837BD4680BD80B586B000AF7860FB
:101F08000023BB608E4B1B688E4AA2FB03239B0AEF
:101F18007B617B689B6D3B613B691B68FB607B68F1
:101F2800DB6D08229A40FB681340002B1AD07B68AF
:101F38001B681B6803F00403002B13D07B681B6825
:101F48001A687B681B6822F004021A607B68DB6DE4
:101F580008229A403B699A607B685B6D43F00102F6
:101F68007B685A657B68DB6D01229A40FB681340E9
:101F7800002B12D07B681B685B6903F08003002B81
:101F88000BD07B68DB6D01229A403B699A607B68C5
:101F98005B6D43F002027B685A657B68DB6D042247
:101FA8009A40FB681340002B12D07B681B681B68A3
:101FB80003F00203002B0BD07B68DB6D04229A40F0
:101FC8003B699A607B685B6D43F004027B685A65E5
:101FD8007B68DB6D10229A40FB681340002B43D0CE
:101FE8007B681B681B6803F00803002B3CD07B68E8
:101FF800DB6D10229A403B699A607B681B681B68FE
:1020080003F48023002B18D07B681B681B6803F43B
:102018000023002B08D17B681B6C002B24D07B6825
:102028001B6C786898471FE07B689B6C002B1BD063
:102038007B689B6C7868984716E07B681B681B6810
:1020480003F48073002B07D17B681B681A687B68D0
:102058001B6822F008021A607B681B6C002B03D0F7
:102068007B681B6C786898477B68DB6D20229A40F8
:10207800FB681340002B00F08F807B681B681B688F
:1020880003F01003002B00F087807B68DB6D2022B3
:102098009A403B699A607B6893F83530DBB2052B30
:1020A80036D17B681B681A687B681B6822F01602A9
:1020B8001A607B681B685A697B681B6822F080027B
:1020C8005A617B681B6C002B03D17B689B6C002BCF
:1020D80007D07B681B681A687B681B6822F00802B7
:1020E8001A607B68DB6D3F229A403B699A607B6887
:1020F800012283F835207B68002283F834207B682E
:102108001B6D002B7ED07B681B6D7868984779E043
:102118007B681B681B6803F48023002B1DD07B6839
:102128001B681B6803F40023002B0DD17B685B6CD4
:10213800002B31D07B685B6C786898472CE000BF37
:1021480000000020B5814E1B7B68DB6B002B23D081
:102158007B68DB6B786898471EE07B681B681B68A8
:1021680003F48073002B0FD17B681B681A687B68A7
:102178001B6822F010021A607B68012283F8352060
:102188007B68002283F834207B68DB6B002B03D04C
:102198007B68DB6B786898477B685B6D002B32D077
:1021A8007B685B6D03F00103002B22D07B6805225E
:1021B80083F835207B681B681A687B681B6822F0E7
:1021C80001021A60BB680133BB607A699A4207D37F
:1021D8007B681B681B6803F00103002BF2D100E049
:1021E80000BF7B68012283F835207B68002283F8D2
:1021F80034207B68DB6C002B05D07B68DB6C78684F
:10220800984700E000BF1837BD4680BD80B485B050
:1022180000AFF860B9607A603B60FB681B681A68B9
:10222800FB681B6822F480221A60FB681B683A6806
:102238005A60FB689B68402B08D1FB681B687A686A
:102248009A60FB681B68BA68DA6007E0FB681B687D
:10225800BA689A60FB681B687A68DA6000BF14374E
:10226800BD465DF8047B704780B485B000AF7860E8
:102278007B681B68DBB2103B144AA2FB03231B09D3
:10228800FB60134AFB6813441B781A467B68DA65BF
:10229800FB68032B09D97B681B6823F47F7323F041
:1022A80003031A1D7B689A6507E07B681B6823F4A3
:1022B8007F7323F003037A6893657B689B6D1846E8
:1022C8001437BD465DF8047B704700BFABAAAAAAC5
:1022D8003041000880B485B000AF78600023FB73FC
:1022E8007B689B6ABB607B689B69002B1FD1BB68BE
:1022F800032B56D801A252F823F000BF152300087B
:102308002723000815230008AB2300087B68DB6A35
:1023180003F08073002B46D00123FB7343E07B68F6
:10232800DB6AB3F1C07F40D10123FB733DE07B68DA
:102338009B69B3F5005F21D1BB68032B37D801A295
:1023480052F823F05D230008632300085D2300088A
:10235800752300080123FB7330E07B68DB6A03F018
:102368008073002B25D00123FB7322E07B68DB6A96
:10237800B3F1C07F1FD10123FB731CE0BB68022BA4
:1023880003D9BB68032B03D018E00123FB7315E0C6
:102398007B68DB6A03F08073002B0ED00123FB738C
:1023A8000BE000BF0AE000BF08E000BF06E000BF86
:1023B80004E000BF02E000BF00E000BFFB7B18465E
:1023C8001437BD465DF8047B704700BF80B489B000
:1023D80000AF7860396000237B6100233B610023F4
:1023E800BB610023FB616BE10122FB6902FA03F385
:1023F8007B613B681B687A6913403B613A697B697A
:102408009A4240F05A813B685B6803F00303012B52
:1024180005D03B685B6803F00303022B30D17B686F
:102428009B68BB61FB695B00032202FA03F3DB4391
:10243800BA691340BB613B68DA68FB695B0002FA62
:1024480003F3BA691343BB617B68BA699A607B6816
:102458005B68BB610122FB6902FA03F3DB43BA69DB
:102468001340BB613B685B681B0903F00102FB6911
:1024780002FA03F3BA691343BB617B68BA695A600D
:102488003B685B6803F00303032B17D07B68DB68AA
:10249800BB61FB695B00032202FA03F3DB43BA6901
:1024A8001340BB613B689A68FB695B0002FA03F35F
:1024B800BA691343BB617B68BA69DA603B685B68D9
:1024C80003F00303022B23D1FB69DA087B68083287
:1024D80053F82230BB61FB6903F007039B000F220E
:1024E80002FA03F3DB43BA691340BB613B681A691C
:1024F800FB6903F007039B0002FA03F3BA6913436D
:10250800BB61FB69DA087B680832B96943F82210B5
:102518007B681B68BB61FB695B00032202FA03F35B
:10252800DB43BA691340BB613B685B6803F0030295
:10253800FB695B0002FA03F3BA691343BB617B686A
:10254800BA691A603B685B6803F44033002B00F0FB
:10255800B4800023FB60604B5B6C5F4A43F48043AC
:1025680053645D4B5B6C03F48043FB60FB685B4A20
:10257800FB699B08023352F82330BB61FB6903F007
:1025880003039B000F2202FA03F3DB43BA691340EB
:10259800BB617B68524A93422BD07B68514A934275
:1025A80025D07B68504A93421FD07B684F4A93429C
:1025B80019D07B684E4A934213D07B684D4A9342A8
:1025C8000DD07B684C4A934207D07B684B4A9342B4
:1025D80001D107230EE008230CE006230AE00523B7
:1025E80008E0042306E0032304E0022302E00123B9
:1025F80000E00023FA6902F0030292009340BA69EE
:102608001343BB613549FB699B080233BA6941F83A
:1026180023203B4B9B68BB613B69DB43BA69134092
:10262800BB613B685B6803F48013002B03D0BA6975
:102638003B691343BB61324ABB699360304BDB682B
:10264800BB613B69DB43BA691340BB613B685B68AC
:1026580003F40013002B03D0BA693B691343BB6131
:10266800274ABB69D360264B5B68BB613B69DB4388
:10267800BA691340BB613B685B6803F40033002B05
:1026880003D0BA693B691343BB611D4ABB695360F8
:102698001B4B1B68BB613B69DB43BA691340BB61D9
:1026A8003B685B6803F48033002B03D0BA693B694D
:1026B8001343BB61124ABB691360FB690133FB61B9
:1026C800FB690F2B7FF690AE00BF00BF2437BD46D5
:1026D8005DF8047B704700BF0038024000380140B5
:1026E800000002400004024000080240000C0240C2
:1026F800001002400014024000180240001C024072
:10270800003C014080B483B000AF78600B467B800A
:1027180013467B707B78002B03D07A887B689A619C
:1027280003E07B881A047B689A6100BF0C37BD46BA
:102738005DF8047B704780B485B000AF78600B46C5
:102748007B807B685B69FB607A88FB6813401A04AE
:10275800FB68D9437B880B401A437B689A6100BFAA
:102768001437BD465DF8047B7047000080B586B01D
:1027780000AF78607B68002B01D1012367E27B689A
:102788001B6803F00103002B75D0884B9B6803F08E
:102798000C03042B0CD0854B9B6803F00C03082B0F
:1027A80012D1824B5B6803F48003B3F5800F0BD121
:1027B8007E4B1B6803F40033002B5BD07B685B689F
:1027C800002B57D1012342E27B685B68B3F5803F59
:1027D80006D1764B1B68754A43F4803313601DE0BD
:1027E8007B685B68B3F5A02F0CD1704B1B686F4AF0
:1027F80043F4802313606D4B1B686C4A43F48033A9
:1028080013600BE0694B1B68684A23F4803313603C
:10281800664B1B68654A23F4802313607B685B68FA
:10282800002B13D0FEF744FD386108E0FEF740FDA9
:1028380002463B69D31A642B01D9032307E25B4B99
:102848001B6803F40033002BF0D014E0FEF730FDD2
:10285800386108E0FEF72CFD02463B69D31A642B69
:1028680001D90323F3E1514B1B6803F40033002B18
:10287800F0D100E000BF7B681B6803F00203002B67
:1028880063D04A4B9B6803F00C03002B0BD0474BDB
:102898009B6803F00C03082B1CD1444B5B6803F4C2
:1028A8008003002B16D1414B1B6803F00203002B59
:1028B80005D07B68DB68012B01D00123C7E13B4BC6
:1028C8001B6823F0F8027B681B69DB003749134358
:1028D8000B603AE07B68DB68002B20D0344B012288
:1028E8001A60FEF7E5FC386108E0FEF7E1FC0246F5
:1028F8003B69D31A022B01D90323A8E12B4B1B6890
:1029080003F00203002BF0D0284B1B6823F0F802D9
:102918007B681B69DB00254913430B6015E0244BDA
:1029280000221A60FEF7C4FC386108E0FEF7C0FC1C
:1029380002463B69D31A022B01D9032387E11B4BBB
:102948001B6803F00203002BF0D17B681B6803F0BF
:102958000803002B36D07B685B69002B16D0154B1B
:1029680001221A60FEF7A4FC386108E0FEF7A0FC1B
:1029780002463B69D31A022B01D9032367E10B4BAB
:102988005B6F03F00203002BF0D01BE0094B002221
:102998001A60FEF78DFC38610EE0FEF789FC0246EE
:1029A8003B69D31A022B07D9032350E100380240B0
:1029B80000004742800E4742884B5B6F03F00203DA
:1029C800002BEAD17B681B6803F00403002B00F09E
:1029D80097800023FB75814B1B6C03F08053002B01
:1029E8000FD10023BB607D4B1B6C7C4A43F08053A6
:1029F80013647A4B1B6C03F08053BB60BB680123E4
:102A0800FB75774B1B6803F48073002B18D1744B4C
:102A18001B68734A43F480731360FEF749FC3861FE
:102A280008E0FEF745FC02463B69D31A022B01D9A0
:102A380003230CE16A4B1B6803F48073002BF0D06E
:102A48007B689B68012B06D1644B1B6F634A43F07C
:102A5800010313671CE07B689B68052B0CD15F4B57
:102A68001B6F5E4A43F0040313675C4B1B6F5B4AA2
:102A780043F0010313670BE0584B1B6F574A23F0D1
:102A880001031367554B1B6F544A23F00403136764
:102A98007B689B68002B15D0FEF70AFC38610AE0BA
:102AA800FEF706FC02463B69D31A41F2883293428C
:102AB80001D90323CBE0494B1B6F03F00203002B22
:102AC800EED014E0FEF7F4FB38610AE0FEF7F0FB05
:102AD80002463B69D31A41F28832934201D9032353
:102AE800B5E03E4B1B6F03F00203002BEED1FB7DDC
:102AF800012B05D1394B1B6C384A23F080531364E2
:102B08007B689B69002B00F0A180344B9B6803F025
:102B18000C03082B5CD07B689B69022B41D1314B9D
:102B280000221A60FEF7C4FB386108E0FEF7C0FB1C
:102B380002463B69D31A022B01D9032387E0274BAE
:102B48001B6803F00073002BF0D17B68DA697B689F
:102B58001B6A1A437B685B6A9B011A437B689B6A02
:102B68005B08013B1B041A437B68DB6A1B061B4995
:102B780013434B601B4B01221A60FEF799FB386127
:102B880008E0FEF795FB02463B69D31A022B01D9F0
:102B980003235CE0114B1B6803F00073002BF0D09B
:102BA80054E0104B00221A60FEF782FB386108E0FF
:102BB800FEF77EFB02463B69D31A022B01D9032399
:102BC80045E0064B1B6803F00073002BF0D13DE095
:102BD8007B689B69012B07D1012338E0003802404C
:102BE80000700040600047421B4B5B68FB607B68DD
:102BF8009B69012B28D0FB6803F480027B68DB69A2
:102C08009A4221D1FB6803F03F027B681B6A9A4213
:102C18001AD1FA6847F6C07313407A68526A92016B
:102C2800934211D1FB6803F440327B689B6A5B08CE
:102C3800013B1B049A4207D1FB6803F070627B6872
:102C4800DB6A1B069A4201D0012300E000231846E4
:102C58001837BD4680BD00BF0038024080B584B03B
:102C680000AF786039607B68002B01D10123CCE08C
:102C7800684B1B6803F007033A689A420CD9654B06
:102C88003A68D2B21A70634B1B6803F007033A68BC
:102C98009A4201D00123B8E07B681B6803F0020365
:102CA800002B20D07B681B6803F00403002B05D0A1
:102CB800594B9B68584A43F4E05393607B681B6800
:102CC80003F00803002B05D0534B9B68524A43F48A
:102CD80060439360504B9B6823F0F0027B689B68CD
:102CE8004D4913438B607B681B6803F00103002B7D
:102CF80044D07B685B68012B07D1474B1B6803F402
:102D08000033002B19D101237FE07B685B68022B1D
:102D180003D07B685B68032B07D13F4B1B6803F02C
:102D28000073002B09D101236FE03B4B1B6803F0B4
:102D38000203002B01D1012367E0374B9B6823F086
:102D480003027B685B68344913438B60FEF7B0FA73
:102D5800F8600AE0FEF7ACFA0246FB68D31A41F2C3
:102D68008832934201D903234FE02B4B9B6803F031
:102D78000C027B685B689B009A42EBD1254B1B6871
:102D880003F007033A689A420CD2224B3A68D2B24F
:102D98001A70204B1B6803F007033A689A4201D067
:102DA800012332E07B681B6803F00403002B08D082
:102DB800194B9B6823F4E0527B68DB681649134380
:102DC8008B607B681B6803F00803002B09D0124B4B
:102DD8009B6823F460427B681B69DB000E49134340
:102DE8008B6000F021F802460B4B9B681B0903F02F
:102DF8000F030A49CB5C22FA03F3094A1360094B13
:102E08001B681846FEF710FA002318461037BD460F
:102E180080BD00BF003C024000380240204100084D
:102E280000000020040000202DE9B04F90B000AF52
:102E380000237B630023FB6300233B630023BB6306
:102E4800594B9B6803F00C03082B0DD0082B00F29C
:102E5800A180002B02D0042B03D09BE0534BBB6313
:102E68009BE0534BBB6398E04F4B5B6803F03F0319
:102E78007B634D4B5B6803F48003002B28D04A4BDF
:102E88005B689B0900223B627A623B6AC3F30800D5
:102E98000021474B03FB01F2002300FB03F313441B
:102EA800434AA0FB0212FA620A46BA62FA6A13445B
:102EB800FB627B6B0022BB61FA61D7E90623D7E985
:102EC8000A01FDF7C1FB02460B461346FB6353E0BC
:102ED800354B5B689B0900223B617A613B69C3F310
:102EE800080A4FF0000B52465B464FF000004FF0C7
:102EF8000001590141EAD261500102460B46B2EB8A
:102F08000A0863EB0B094FF000024FF000034FEA89
:102F1800891343EA98634FEA8812B2EB080463EB1B
:102F280009054FF000024FF00003EB0043EA547329
:102F3800E20014461D4614EB0A033B6045EB0B0305
:102F48007B604FF000024FF00003D7E900452946A7
:102F58008B02214643EA915321468A0210461946BC
:102F68007B6B0022BB60FA60D7E90223FDF76CFB9C
:102F780002460B461346FB630B4B5B681B0C03F0C6
:102F8800030301335B003B63FA6B3B6BB2FBF3F368
:102F9800BB6302E0054BBB6300BFBB6B1846403701
:102FA800BD46BDE8B08F00BF003802400024F400E1
:102FB80040787D0180B582B000AF78607B68002BD7
:102FC80001D1012341E07B6893F83D30DBB2002B4F
:102FD80006D17B68002283F83C207868FDF7FEFF65
:102FE8007B68022283F83D207B681A687B6804337B
:102FF8001946104600F0C6FC7B68012283F846207B
:103008007B68012283F83E207B68012283F83F20F9
:103018007B68012283F840207B68012283F84120E5
:103028007B68012283F842207B68012283F84320D1
:103038007B68012283F844207B68012283F84520BD
:103048007B68012283F83D20002318460837BD46D7
:1030580080BD80B582B000AF78607B68002B01D15D
:10306800012341E07B6893F83D30DBB2002B06D1A9
:103078007B68002283F83C20786800F039F87B6888
:10308800022283F83D207B681A687B68043319465E
:10309800104600F077FC7B68012283F846207B68A5
:1030A800012283F83E207B68012283F83F207B6859
:1030B800012283F840207B68012283F841207B6845
:1030C800012283F842207B68012283F843207B6831
:1030D800012283F844207B68012283F845207B681D
:1030E800012283F83D20002318460837BD4680BDDD
:1030F80080B483B000AF786000BF0C37BD465DF880
:10310800047B704780B586B000AFF860B9607A601C
:103118007B800023FB75BB68002B09D1FB6893F803
:103128003E30DBB2022B0CBF01230023DBB222E0CE
:10313800BB68042B09D1FB6893F83F30DBB2022B44
:103148000CBF01230023DBB215E0BB68082B09D1B3
:10315800FB6893F84030DBB2022B0CBF012300233D
:10316800DBB208E0FB6893F84130DBB2022B0CBFFE
:1031780001230023DBB2002B01D0022371E1BB68DD
:10318800002B09D1FB6893F83E30DBB2012B0CBF52
:1031980001230023DBB222E0BB68042B09D1FB68C2
:1031A80093F83F30DBB2012B0CBF01230023DBB2C5
:1031B80015E0BB68082B09D1FB6893F84030DBB2F7
:1031C800012B0CBF01230023DBB208E0FB6893F856
:1031D8004130DBB2012B0CBF01230023DBB2002BF3
:1031E80024D07B68002B02D07B88002B01D10123DF
:1031F80037E1BB68002B04D1FB68022283F83E202C
:1032080016E0BB68042B04D1FB68022283F83F2038
:103218000EE0BB68082B04D1FB68022283F840202B
:1032280006E0FB68022283F8412001E0012318E14F
:10323800BB680C2B00F2AE8001A252F823F000BF4D
:103248007D3200089D3300089D3300089D33000837
:10325800C53200089D3300089D3300089D330008DF
:103268000D3300089D3300089D3300089D33000886
:1032780055330008FB685B6A7C4ADA63FB685B6A63
:103288007B4A1A64FB685B6A7A4ADA64FB68586AA4
:103298007968FB681B6834331A467B88FEF7D4FDCF
:1032A8000346002B01D00123DBE0FB681B68DA68CA
:1032B800FB681B6842F40072DA606EE0FB689B6A88
:1032C8006A4ADA63FB689B6A694A1A64FB689B6A04
:1032D800684ADA64FB68986A7968FB681B6838335F
:1032E8001A467B88FEF7B0FD0346002B01D0012368
:1032F800B7E0FB681B68DA68FB681B6842F4806209
:10330800DA604AE0FB68DB6A584ADA63FB68DB6A22
:10331800574A1A64FB68DB6A564ADA64FB68D86A5B
:103328007968FB681B683C331A467B88FEF78CFD7E
:103338000346002B01D0012393E0FB681B68DA6881
:10334800FB681B6842F40062DA6026E0FB681B6BCE
:10335800464ADA63FB681B6B454A1A64FB681B6BB9
:10336800444ADA64FB68186B7968FB681B68403369
:103378001A467B88FEF768FD0346002B01D001231F
:103388006FE0FB681B68DA68FB681B6842F48052D0
:10339800DA6002E00123FB7500BFFB7D002B5FD1E3
:1033A800FB681B680122B968184600F0DBFDFB6862
:1033B8001B68314A934204D0FB681B682F4A93422A
:1033C80001D1012300E00023002B07D0FB681B6814
:1033D8005A6CFB681B6842F400425A64FB681B681D
:1033E800254A934222D0FB681B68B3F1804F1DD059
:1033F800FB681B68224A934218D0FB681B68214A65
:10340800934213D0FB681B681F4A93420ED0FB6897
:103418001B681A4A934209D0FB681B681B4A9342EF
:1034280004D0FB681B681A4A934211D1FB681B68D9
:103438009B6803F007033B613B69062B10D0FB68D0
:103448001B681A68FB681B6842F001021A6007E0F3
:10345800FB681B681A68FB681B6842F001021A6067
:10346800FB7D18461837BD4680BD00BF7D38000873
:1034780025390008EB37000800000140000401402E
:103488000004004000080040000C004000400140DB
:103498000018004080B586B000AFF860B9607A6067
:1034A8000023FB75FB6893F83C30012B01D1022304
:1034B800AEE0FB68012283F83C207B680C2B00F20D
:1034C8009F8001A252F823F005350008093600084C
:1034D800093600080936000845350008093600088D
:1034E800093600080936000887350008093600083B
:1034F8000936000809360008C7350008FB681B684C
:10350800B968184600F0E4FAFB681B689A69FB681A
:103518001B6842F008029A61FB681B689A69FB689D
:103528001B6822F004029A61FB681B689969BB68F2
:103538001A69FB681B680A439A6164E0FB681B68A8
:10354800B968184600F034FBFB681B689A69FB6889
:103558001B6842F400629A61FB681B689A69FB6801
:103568001B6822F480629A61FB681B689969BB68D2
:103578001B691A02FB681B680A439A6143E0FB68EF
:103588001B68B968184600F089FBFB681B68DA6994
:10359800FB681B6842F00802DA61FB681B68DA699D
:1035A800FB681B6822F00402DA61FB681B68D969B2
:1035B800BB681A69FB681B680A43DA6123E0FB6889
:1035C8001B68B968184600F0DDFBFB681B68DA6900
:1035D800FB681B6842F40062DA61FB681B68DA6901
:1035E800FB681B6822F48062DA61FB681B68D96992
:1035F800BB681B691A02FB681B680A43DA6102E0B0
:103608000123FB7500BFFB68002283F83C20FB7D8B
:1036180018461837BD4680BD80B584B000AF7860C5
:1036280039600023FB737B6893F83C30012B01D190
:103638000223B4E07B68012283F83C207B680222E5
:1036480083F83D207B681B689B68BB60BB6823F0E0
:103658007703BB60BB6823F47F43BB607B681B6850
:10366800BA689A603B681B68B3F5005F3ED0B3F553
:10367800005F00F28780B3F5805F00F08680B3F5C5
:10368800805F7FD8702B1AD0702B7BD8602B50D0DE
:10369800602B77D8502B3CD0502B73D8402B58D068
:1036A800402B6FD8302B64D0302B6BD8202B60D0B8
:1036B800202B67D8002B5CD0102B5AD062E07B6897
:1036C80018683B6899683B685A683B68DB6800F093
:1036D80029FC7B681B689B68BB60BB6843F0770369
:1036E800BB607B681B68BA689A604FE07B681868A3
:1036F8003B6899683B685A683B68DB6800F012FCD5
:103708007B681B689A687B681B6842F480429A60F1
:103718003CE07B6818683B6859683B68DB681A4678
:1037280000F086FB7B681B685021184600F0DFFB21
:103738002CE07B6818683B6859683B68DB681A4668
:1037480000F0A5FB7B681B686021184600F0CFFBE2
:103758001CE07B6818683B6859683B68DB681A4658
:1037680000F066FB7B681B684021184600F0BFFB31
:103778000CE07B681A683B681B681946104600F025
:10378800B6FB03E00123FB7300E000BF7B68012266
:1037980083F83D207B68002283F83C20FB7B184699
:1037A8001037BD4680BD80B483B000AF786000BFDD
:1037B8000C37BD465DF8047B704780B483B000AF1A
:1037C800786000BF0C37BD465DF8047B704780B455
:1037D80083B000AF786000BF0C37BD465DF8047B4E
:1037E800704780B584B000AF78607B689B6BFB60E6
:1037F800FB685B6A7A689A4207D1FB6801221A77EC
:10380800FB68012283F83E202AE0FB689B6A7A68FD
:103818009A4207D1FB6802221A77FB68012283F8D3
:103828003F201DE0FB68DB6A7A689A4207D1FB6893
:1038380004221A77FB68012283F8402010E0FB6815
:103848001B6B7A689A4207D1FB6808221A77FB68D3
:10385800012283F8412003E0FB68012283F83D2020
:10386800F868FFF7B4FFFB6800221A7700BF10372B
:10387800BD4680BD80B584B000AF78607B689B6B27
:10388800FB60FB685B6A7A689A420BD1FB6801228D
:103898001A777B68DB69002B36D1FB68012283F835
:1038A8003E2031E0FB689B6A7A689A420BD1FB683C
:1038B80002221A777B68DB69002B25D1FB6801227D
:1038C80083F83F2020E0FB68DB6A7A689A420BD1D4
:1038D800FB6804221A777B68DB69002B14D1FB682C
:1038E800012283F840200FE0FB681B6B7A689A423C
:1038F8000AD1FB6808221A777B68DB69002B03D1A1
:10390800FB68012283F84120F868FFF74CFFFB6849
:1039180000221A7700BF1037BD4680BD80B584B03D
:1039280000AF78607B689B6BFB60FB685B6A7A68BA
:103938009A4203D1FB6801221A7719E0FB689B6A57
:103948007A689A4203D1FB6802221A7710E0FB6872
:10395800DB6A7A689A4203D1FB6804221A7707E087
:10396800FB681B6B7A689A4202D1FB6808221A77B7
:10397800F868FFF722FFFB6800221A7700BF1037AC
:10398800BD4680BD80B485B000AF786039607B6883
:103998001B68FB607B68434A934213D07B68B3F192
:1039A800804F0FD07B68404A93420BD07B683F4AD8
:1039B800934207D07B683E4A934203D07B683D4AD6
:1039C800934208D1FB6823F07003FB603B685B6897
:1039D800FA681343FB607B68324A93422BD07B68BA
:1039E800B3F1804F27D07B682F4A934223D07B685E
:1039F8002E4A93421FD07B682D4A93421BD07B6886
:103A08002C4A934217D07B682B4A934213D07B6889
:103A18002A4A93420FD07B68294A93420BD07B688D
:103A2800284A934207D07B68274A934203D07B6891
:103A3800264A934208D1FB6823F44073FB603B6835
:103A4800DB68FA681343FB60FB6823F080023B687D
:103A58005B691343FB603B689A687B68DA623B6882
:103A68001A687B689A627B680E4A934203D07B6827
:103A7800104A934203D13B681A697B681A637B68D2
:103A88001B6843F004027B681A607B6801225A6154
:103A98007B68FA681A6000BF1437BD465DF8047B7E
:103AA800704700BF000001400004004000080040CB
:103AB800000C004000040140004001400044014067
:103AC8000048014000180040001C00400020004051
:103AD80080B487B000AF786039607B681B6A7B610F
:103AE8007B681B6A23F001027B681A627B685B684B
:103AF8003B617B689B69FB60FB6823F07003FB609C
:103B0800FB6823F00303FB603B681B68FA681343F8
:103B1800FB607B6923F002037B613B689B687A69E1
:103B280013437B617B68204A934203D07B681F4A1A
:103B380093420CD17B6923F008037B613B68DB6807
:103B48007A6913437B617B6923F004037B617B689B
:103B5800154A934203D07B68144A934211D13B69BA
:103B680023F480733B613B6923F400733B613B683A
:103B78005B693A6913433B613B689B693A69134344
:103B88003B617B683A695A607B68FA689A613B686E
:103B98005A687B685A637B687A691A6200BF1C3767
:103BA800BD465DF8047B70470000014000040140F9
:103BB80080B487B000AF786039607B681B6A7B612E
:103BC8007B681B6A23F010027B681A627B685B685B
:103BD8003B617B689B69FB60FB6823F4E043FB6007
:103BE800FB6823F44073FB603B681B681B02FA68A0
:103BF8001343FB607B6923F020037B613B689B6870
:103C08001B017A6913437B617B68224A934203D084
:103C18007B68214A93420DD17B6923F080037B6145
:103C28003B68DB681B017A6913437B617B6923F07E
:103C380040037B617B68174A934203D07B68164A2E
:103C4800934213D13B6923F480633B613B6923F4BE
:103C580000633B613B685B699B003A6913433B61C6
:103C68003B689B699B003A6913433B617B683A69EF
:103C78005A607B68FA689A613B685A687B689A63FD
:103C88007B687A691A6200BF1C37BD465DF8047B01
:103C9800704700BF000001400004014080B487B0B5
:103CA80000AF786039607B681B6A7B617B681B6A40
:103CB80023F480727B681A627B685B683B617B686F
:103CC800DB69FB60FB6823F07003FB60FB6823F093
:103CD8000303FB603B681B68FA681343FB607B695E
:103CE80023F400737B613B689B681B027A6913436A
:103CF8007B617B68214A934203D07B68204A9342C8
:103D08000DD17B6923F400637B613B68DB681B0290
:103D18007A6913437B617B6923F480637B617B68E9
:103D2800164A934203D07B68154A934213D13B69E4
:103D380023F480533B613B6923F400533B613B68A8
:103D48005B691B013A6913433B613B689B691B0133
:103D58003A6913433B617B683A695A607B68FA6841
:103D6800DA613B685A687B68DA637B687A691A6249
:103D780000BF1C37BD465DF8047B7047000001405A
:103D88000004014080B487B000AF786039607B6878
:103D98001B6A3B617B681B6A23F480527B681A624A
:103DA8007B685B687B617B68DB69FB60FB6823F48D
:103DB800E043FB60FB6823F44073FB603B681B68CF
:103DC8001B02FA681343FB603B6923F400533B6111
:103DD8003B689B681B033A6913433B617B68124A43
:103DE800934203D07B68114A934209D17B6923F43B
:103DF80080437B613B685B699B017A6913437B6104
:103E08007B687A695A607B68FA68DA613B685A6845
:103E18007B681A647B683A691A6200BF1C37BD4622
:103E28005DF8047B704700BF0000014000040140BA
:103E380080B487B000AFF860B9607A60FB681B6A2D
:103E48007B61FB681B6A23F00102FB681A62FB684E
:103E58009B693B613B6923F0F0033B617B681B0175
:103E68003A6913433B617B6923F00A037B617A69F2
:103E7800BB6813437B61FB683A699A61FB687A699E
:103E88001A6200BF1C37BD465DF8047B704780B4DA
:103E980087B000AFF860B9607A60FB681B6A7B6125
:103EA800FB681B6A23F01002FB681A62FB689B69B7
:103EB8003B613B6923F470433B617B681B033A69B0
:103EC80013433B617B6923F0A0037B61BB681B0143
:103ED8007A6913437B61FB683A699A61FB687A697E
:103EE8001A6200BF1C37BD465DF8047B704780B47A
:103EF80085B000AF786039607B689B68FB60FB68C1
:103F080023F07003FB603A68FB68134343F0070330
:103F1800FB607B68FA689A6000BF1437BD465DF89D
:103F2800047B704780B487B000AFF860B9607A60EE
:103F38003B60FB689B687B617B6923F47F437B6103
:103F48003B681A027B681A43BB6813437A691343B8
:103F58007B61FB687A699A6000BF1C37BD465DF8D3
:103F6800047B704780B487B000AFF860B9607A60AE
:103F7800BB6803F01F03012202FA03F37B61FB68AD
:103F88001A6A7B69DB431A40FB681A62FB681A6A83
:103F9800BB6803F01F03796801FA03F31A43FB684F
:103FA8001A6200BF1C37BD465DF8047B70470000ED
:103FB80080B485B000AF786039607B6893F83C3096
:103FC800012B01D102235AE07B68012283F83C20AF
:103FD8007B68022283F83D207B681B685B68FB6076
:103FE8007B681B689B68BB60FB6823F07003FB6001
:103FF8003B681B68FA681343FB607B681B68FA68B8
:104008005A607B681B68214A934222D07B681B68F0
:10401800B3F1804F1DD07B681B681D4A934218D0AE
:104028007B681B681B4A934213D07B681B681A4A3B
:1040380093420ED07B681B68184A934209D07B686C
:104048001B68174A934204D07B681B68154A934241
:104058000CD1BB6823F08003BB603B685B68BA681F
:104068001343BB607B681B68BA689A607B6801224F
:1040780083F83D207B68002283F83C200023184603
:104088001437BD465DF8047B704700BF000001404F
:104098000004004000080040000C004000040140FB
:1040A800004001400018004002440346934200D1FA
:1040B800704703F8011BF9E770B50D4D0D4C641BF3
:1040C800A4100026A64209D10B4D0C4C00F018F89C
:1040D800641BA4100026A64205D170BD55F8043B08
:1040E80098470136EEE755F8043B98470136F2E762
:1040F8004041000840410008404100084441000890
:10410800F8B500BFF8BC08BC9E467047F8B500BFBC
:08411800F8BC08BC9E4670478C
:104120000000000000000000010203040607080967
:0841300000061016000610162F
:0841380048C5FF7F01000000F3
:04414000AD010008C5
:0441440089010008E5
:0C4148000024F400100000000100000042
:040000050800119945
:00000001FF
